{
  "contractName": "SubdomainRegistrar",
  "abi": [
    {
      "inputs": [
        {
          "internalType": "contract ENS",
          "name": "ens",
          "type": "address"
        },
        {
          "internalType": "contract DeadDotComSeance",
          "name": "_deadDotComSeance",
          "type": "address"
        },
        {
          "internalType": "contract Resolver",
          "name": "_resolver",
          "type": "address"
        }
      ],
      "payable": false,
      "stateMutability": "nonpayable",
      "type": "constructor"
    },
    {
      "anonymous": false,
      "inputs": [
        {
          "indexed": true,
          "internalType": "bytes32",
          "name": "label",
          "type": "bytes32"
        }
      ],
      "name": "DomainConfigured",
      "type": "event"
    },
    {
      "anonymous": false,
      "inputs": [
        {
          "indexed": true,
          "internalType": "bytes32",
          "name": "label",
          "type": "bytes32"
        },
        {
          "indexed": false,
          "internalType": "string",
          "name": "name",
          "type": "string"
        }
      ],
      "name": "DomainTransferred",
      "type": "event"
    },
    {
      "anonymous": false,
      "inputs": [
        {
          "indexed": true,
          "internalType": "bytes32",
          "name": "label",
          "type": "bytes32"
        }
      ],
      "name": "DomainUnlisted",
      "type": "event"
    },
    {
      "anonymous": false,
      "inputs": [
        {
          "indexed": true,
          "internalType": "bytes32",
          "name": "label",
          "type": "bytes32"
        },
        {
          "indexed": false,
          "internalType": "string",
          "name": "subdomain",
          "type": "string"
        },
        {
          "indexed": true,
          "internalType": "address",
          "name": "owner",
          "type": "address"
        }
      ],
      "name": "NewRegistration",
      "type": "event"
    },
    {
      "anonymous": false,
      "inputs": [
        {
          "indexed": false,
          "internalType": "string",
          "name": "domain",
          "type": "string"
        },
        {
          "indexed": false,
          "internalType": "string",
          "name": "subdomain",
          "type": "string"
        },
        {
          "indexed": false,
          "internalType": "uint256",
          "name": "tokenId",
          "type": "uint256"
        },
        {
          "indexed": false,
          "internalType": "address",
          "name": "tokenOwner",
          "type": "address"
        },
        {
          "indexed": false,
          "internalType": "string",
          "name": "oldSubdomain",
          "type": "string"
        }
      ],
      "name": "NewSubdomain",
      "type": "event"
    },
    {
      "anonymous": false,
      "inputs": [
        {
          "indexed": true,
          "internalType": "bytes32",
          "name": "label",
          "type": "bytes32"
        },
        {
          "indexed": true,
          "internalType": "address",
          "name": "oldOwner",
          "type": "address"
        },
        {
          "indexed": true,
          "internalType": "address",
          "name": "newOwner",
          "type": "address"
        }
      ],
      "name": "OwnerChanged",
      "type": "event"
    },
    {
      "anonymous": false,
      "inputs": [
        {
          "indexed": true,
          "internalType": "bytes32",
          "name": "label",
          "type": "bytes32"
        },
        {
          "indexed": false,
          "internalType": "string",
          "name": "subdomain",
          "type": "string"
        },
        {
          "indexed": false,
          "internalType": "uint256",
          "name": "amount",
          "type": "uint256"
        },
        {
          "indexed": false,
          "internalType": "uint256",
          "name": "expirationDate",
          "type": "uint256"
        }
      ],
      "name": "RentPaid",
      "type": "event"
    },
    {
      "constant": true,
      "inputs": [],
      "name": "TLD_NODE",
      "outputs": [
        {
          "internalType": "bytes32",
          "name": "",
          "type": "bytes32"
        }
      ],
      "payable": false,
      "stateMutability": "view",
      "type": "function"
    },
    {
      "constant": false,
      "inputs": [
        {
          "internalType": "string",
          "name": "name",
          "type": "string"
        }
      ],
      "name": "configureDomain",
      "outputs": [],
      "payable": false,
      "stateMutability": "nonpayable",
      "type": "function"
    },
    {
      "constant": true,
      "inputs": [
        {
          "internalType": "bytes32",
          "name": "",
          "type": "bytes32"
        }
      ],
      "name": "domains",
      "outputs": [
        {
          "internalType": "string",
          "name": "",
          "type": "string"
        }
      ],
      "payable": false,
      "stateMutability": "view",
      "type": "function"
    },
    {
      "constant": true,
      "inputs": [],
      "name": "ens",
      "outputs": [
        {
          "internalType": "contract ENS",
          "name": "",
          "type": "address"
        }
      ],
      "payable": false,
      "stateMutability": "view",
      "type": "function"
    },
    {
      "constant": true,
      "inputs": [],
      "name": "migration",
      "outputs": [
        {
          "internalType": "address",
          "name": "",
          "type": "address"
        }
      ],
      "payable": false,
      "stateMutability": "view",
      "type": "function"
    },
    {
      "constant": true,
      "inputs": [],
      "name": "registrar",
      "outputs": [
        {
          "internalType": "address",
          "name": "",
          "type": "address"
        }
      ],
      "payable": false,
      "stateMutability": "view",
      "type": "function"
    },
    {
      "constant": true,
      "inputs": [],
      "name": "registrarOwner",
      "outputs": [
        {
          "internalType": "address",
          "name": "",
          "type": "address"
        }
      ],
      "payable": false,
      "stateMutability": "view",
      "type": "function"
    },
    {
      "constant": true,
      "inputs": [
        {
          "internalType": "bytes32",
          "name": "label",
          "type": "bytes32"
        },
        {
          "internalType": "string",
          "name": "subdomain",
          "type": "string"
        }
      ],
      "name": "rentDue",
      "outputs": [
        {
          "internalType": "uint256",
          "name": "timestamp",
          "type": "uint256"
        }
      ],
      "payable": false,
      "stateMutability": "view",
      "type": "function"
    },
    {
      "constant": false,
      "inputs": [
        {
          "internalType": "address",
          "name": "_migration",
          "type": "address"
        }
      ],
      "name": "setMigrationAddress",
      "outputs": [],
      "payable": false,
      "stateMutability": "nonpayable",
      "type": "function"
    },
    {
      "constant": false,
      "inputs": [
        {
          "internalType": "string",
          "name": "name",
          "type": "string"
        },
        {
          "internalType": "address",
          "name": "resolver",
          "type": "address"
        }
      ],
      "name": "setResolver",
      "outputs": [],
      "payable": false,
      "stateMutability": "nonpayable",
      "type": "function"
    },
    {
      "constant": false,
      "inputs": [],
      "name": "stop",
      "outputs": [],
      "payable": false,
      "stateMutability": "nonpayable",
      "type": "function"
    },
    {
      "constant": true,
      "inputs": [],
      "name": "stopped",
      "outputs": [
        {
          "internalType": "bool",
          "name": "",
          "type": "bool"
        }
      ],
      "payable": false,
      "stateMutability": "view",
      "type": "function"
    },
    {
      "constant": true,
      "inputs": [
        {
          "internalType": "bytes4",
          "name": "interfaceID",
          "type": "bytes4"
        }
      ],
      "name": "supportsInterface",
      "outputs": [
        {
          "internalType": "bool",
          "name": "",
          "type": "bool"
        }
      ],
      "payable": false,
      "stateMutability": "pure",
      "type": "function"
    },
    {
      "constant": false,
      "inputs": [
        {
          "internalType": "address",
          "name": "newOwner",
          "type": "address"
        }
      ],
      "name": "transferOwnership",
      "outputs": [],
      "payable": false,
      "stateMutability": "nonpayable",
      "type": "function"
    },
    {
      "constant": false,
      "inputs": [
        {
          "internalType": "address",
          "name": "newOwner",
          "type": "address"
        }
      ],
      "name": "updateOwner",
      "outputs": [],
      "payable": false,
      "stateMutability": "nonpayable",
      "type": "function"
    },
    {
      "constant": false,
      "inputs": [
        {
          "internalType": "contract Resolver",
          "name": "_resolver",
          "type": "address"
        }
      ],
      "name": "updateResolver",
      "outputs": [],
      "payable": false,
      "stateMutability": "nonpayable",
      "type": "function"
    },
    {
      "constant": false,
      "inputs": [
        {
          "internalType": "string",
          "name": "subdomain",
          "type": "string"
        },
        {
          "internalType": "uint256",
          "name": "tokenId",
          "type": "uint256"
        }
      ],
      "name": "registerSubdomain",
      "outputs": [],
      "payable": true,
      "stateMutability": "payable",
      "type": "function"
    },
    {
      "constant": false,
      "inputs": [
        {
          "internalType": "string",
          "name": "subdomain",
          "type": "string"
        },
        {
          "internalType": "uint256",
          "name": "tokenId",
          "type": "uint256"
        }
      ],
      "name": "unregister",
      "outputs": [],
      "payable": false,
      "stateMutability": "nonpayable",
      "type": "function"
    },
    {
      "constant": false,
      "inputs": [
        {
          "internalType": "bytes32",
          "name": "label",
          "type": "bytes32"
        },
        {
          "internalType": "string",
          "name": "subdomain",
          "type": "string"
        },
        {
          "internalType": "address",
          "name": "owner",
          "type": "address"
        },
        {
          "internalType": "address",
          "name": "resolver",
          "type": "address"
        }
      ],
      "name": "register",
      "outputs": [],
      "payable": true,
      "stateMutability": "payable",
      "type": "function"
    },
    {
      "constant": false,
      "inputs": [
        {
          "internalType": "bytes32",
          "name": "label",
          "type": "bytes32"
        },
        {
          "internalType": "string",
          "name": "subdomain",
          "type": "string"
        }
      ],
      "name": "payRent",
      "outputs": [],
      "payable": true,
      "stateMutability": "payable",
      "type": "function"
    },
    {
      "constant": false,
      "inputs": [
        {
          "internalType": "string",
          "name": "name",
          "type": "string"
        },
        {
          "internalType": "address payable",
          "name": "_owner",
          "type": "address"
        },
        {
          "internalType": "address",
          "name": "_transfer",
          "type": "address"
        }
      ],
      "name": "configureDomainFor",
      "outputs": [],
      "payable": false,
      "stateMutability": "nonpayable",
      "type": "function"
    },
    {
      "constant": true,
      "inputs": [
        {
          "internalType": "bytes32",
          "name": "label",
          "type": "bytes32"
        }
      ],
      "name": "owner",
      "outputs": [
        {
          "internalType": "address",
          "name": "",
          "type": "address"
        }
      ],
      "payable": false,
      "stateMutability": "view",
      "type": "function"
    },
    {
      "constant": true,
      "inputs": [
        {
          "internalType": "bytes32",
          "name": "label",
          "type": "bytes32"
        },
        {
          "internalType": "string",
          "name": "subdomain",
          "type": "string"
        }
      ],
      "name": "query",
      "outputs": [
        {
          "internalType": "string",
          "name": "domain",
          "type": "string"
        }
      ],
      "payable": false,
      "stateMutability": "view",
      "type": "function"
    }
  ],
  "bytecode": "0x608060405260008060006101000a81548160ff0219169083151502179055503480156200002b57600080fd5b5060405162003f3e38038062003f3e833981810160405260608110156200005157600080fd5b810190808051906020019092919080519060200190929190805190602001909291905050508280600360006101000a81548173ffffffffffffffffffffffffffffffffffffffff021916908373ffffffffffffffffffffffffffffffffffffffff160217905550600360009054906101000a900473ffffffffffffffffffffffffffffffffffffffff1673ffffffffffffffffffffffffffffffffffffffff166302571be37f93cdeb708b7545dc668eb9280176169d1c33cfd8ed6f04690a0bcc88a93fc4ae60001b6040518263ffffffff1660e01b81526004018082815260200191505060206040518083038186803b1580156200014f57600080fd5b505afa15801562000164573d6000803e3d6000fd5b505050506040513d60208110156200017b57600080fd5b8101908080519060200190929190505050600260006101000a81548173ffffffffffffffffffffffffffffffffffffffff021916908373ffffffffffffffffffffffffffffffffffffffff16021790555033600060016101000a81548173ffffffffffffffffffffffffffffffffffffffff021916908373ffffffffffffffffffffffffffffffffffffffff1602179055505080600460006101000a81548173ffffffffffffffffffffffffffffffffffffffff021916908373ffffffffffffffffffffffffffffffffffffffff16021790555081600560006101000a81548173ffffffffffffffffffffffffffffffffffffffff021916908373ffffffffffffffffffffffffffffffffffffffff16021790555033600660006101000a81548173ffffffffffffffffffffffffffffffffffffffff021916908373ffffffffffffffffffffffffffffffffffffffff1602179055506040518060400160405280600a81526020017f70657473646f74636f6d00000000000000000000000000000000000000000000815250600a60006040518060400160405280600a81526020017f70657473646f74636f6d0000000000000000000000000000000000000000000081525080519060200120815260200190815260200160002090805190602001906200036b92919062001819565b5060086040518060400160405280600a81526020017f70657473646f74636f6d000000000000000000000000000000000000000000008152508051906020012090806001815401808255809150509060018203906000526020600020016000909192909190915055506040518060400160405280600c81526020017f616c6c616476616e746167650000000000000000000000000000000000000000815250600a60006040518060400160405280600c81526020017f616c6c616476616e74616765000000000000000000000000000000000000000081525080519060200120815260200190815260200160002090805190602001906200046e92919062001819565b5060086040518060400160405280600c81526020017f616c6c616476616e7461676500000000000000000000000000000000000000008152508051906020012090806001815401808255809150509060018203906000526020600020016000909192909190915055506040518060400160405280600781526020017f6269646c616e6400000000000000000000000000000000000000000000000000815250600a60006040518060400160405280600781526020017f6269646c616e640000000000000000000000000000000000000000000000000081525080519060200120815260200190815260200160002090805190602001906200057192919062001819565b5060086040518060400160405280600781526020017f6269646c616e64000000000000000000000000000000000000000000000000008152508051906020012090806001815401808255809150509060018203906000526020600020016000909192909190915055506040518060400160405280600881526020017f62697a6275796572000000000000000000000000000000000000000000000000815250600a60006040518060400160405280600881526020017f62697a627579657200000000000000000000000000000000000000000000000081525080519060200120815260200190815260200160002090805190602001906200067492919062001819565b5060086040518060400160405280600881526020017f62697a62757965720000000000000000000000000000000000000000000000008152508051906020012090806001815401808255809150509060018203906000526020600020016000909192909190915055506040518060400160405280600b81526020017f6361706163697479776562000000000000000000000000000000000000000000815250600a60006040518060400160405280600b81526020017f636170616369747977656200000000000000000000000000000000000000000081525080519060200120815260200190815260200160002090805190602001906200077792919062001819565b5060086040518060400160405280600b81526020017f63617061636974797765620000000000000000000000000000000000000000008152508051906020012090806001815401808255809150509060018203906000526020600020016000909192909190915055506040518060400160405280600881526020017f6361736877617273000000000000000000000000000000000000000000000000815250600a60006040518060400160405280600881526020017f636173687761727300000000000000000000000000000000000000000000000081525080519060200120815260200190815260200160002090805190602001906200087a92919062001819565b5060086040518060400160405280600881526020017f63617368776172730000000000000000000000000000000000000000000000008152508051906020012090806001815401808255809150509060018203906000526020600020016000909192909190915055506040518060400160405280600881526020017f65636972636c6573000000000000000000000000000000000000000000000000815250600a60006040518060400160405280600881526020017f65636972636c657300000000000000000000000000000000000000000000000081525080519060200120815260200190815260200160002090805190602001906200097d92919062001819565b5060086040518060400160405280600881526020017f65636972636c65730000000000000000000000000000000000000000000000008152508051906020012090806001815401808255809150509060018203906000526020600020016000909192909190915055506040518060400160405280600881526020017f6566616e73686f70000000000000000000000000000000000000000000000000815250600a60006040518060400160405280600881526020017f6566616e73686f70000000000000000000000000000000000000000000000000815250805190602001208152602001908152602001600020908051906020019062000a8092919062001819565b5060086040518060400160405280600881526020017f6566616e73686f700000000000000000000000000000000000000000000000008152508051906020012090806001815401808255809150509060018203906000526020600020016000909192909190915055506040518060400160405280600881526020017f65686f6262696573000000000000000000000000000000000000000000000000815250600a60006040518060400160405280600881526020017f65686f6262696573000000000000000000000000000000000000000000000000815250805190602001208152602001908152602001600020908051906020019062000b8392919062001819565b5060086040518060400160405280600881526020017f65686f62626965730000000000000000000000000000000000000000000000008152508051906020012090806001815401808255809150509060018203906000526020600020016000909192909190915055506040518060400160405280600481526020017f656c617700000000000000000000000000000000000000000000000000000000815250600a60006040518060400160405280600481526020017f656c617700000000000000000000000000000000000000000000000000000000815250805190602001208152602001908152602001600020908051906020019062000c8692919062001819565b5060086040518060400160405280600481526020017f656c6177000000000000000000000000000000000000000000000000000000008152508051906020012090806001815401808255809150509060018203906000526020600020016000909192909190915055506040518060400160405280600c81526020017f65786368616e6765706174680000000000000000000000000000000000000000815250600a60006040518060400160405280600c81526020017f65786368616e6765706174680000000000000000000000000000000000000000815250805190602001208152602001908152602001600020908051906020019062000d8992919062001819565b5060086040518060400160405280600c81526020017f65786368616e67657061746800000000000000000000000000000000000000008152508051906020012090806001815401808255809150509060018203906000526020600020016000909192909190915055506040518060400160405280601081526020017f66696e616e6369616c7072696e74657200000000000000000000000000000000815250600a60006040518060400160405280601081526020017f66696e616e6369616c7072696e74657200000000000000000000000000000000815250805190602001208152602001908152602001600020908051906020019062000e8c92919062001819565b5060086040518060400160405280601081526020017f66696e616e6369616c7072696e746572000000000000000000000000000000008152508051906020012090806001815401808255809150509060018203906000526020600020016000909192909190915055506040518060400160405280600681526020017f66756e6275670000000000000000000000000000000000000000000000000000815250600a60006040518060400160405280600681526020017f66756e6275670000000000000000000000000000000000000000000000000000815250805190602001208152602001908152602001600020908051906020019062000f8f92919062001819565b5060086040518060400160405280600681526020017f66756e62756700000000000000000000000000000000000000000000000000008152508051906020012090806001815401808255809150509060018203906000526020600020016000909192909190915055506040518060400160405280600c81526020017f68656176656e6c79646f6f720000000000000000000000000000000000000000815250600a60006040518060400160405280600c81526020017f68656176656e6c79646f6f72000000000000000000000000000000000000000081525080519060200120815260200190815260200160002090805190602001906200109292919062001819565b5060086040518060400160405280600c81526020017f68656176656e6c79646f6f7200000000000000000000000000000000000000008152508051906020012090806001815401808255809150509060018203906000526020600020016000909192909190915055506040518060400160405280600881526020017f6968617276657374000000000000000000000000000000000000000000000000815250600a60006040518060400160405280600881526020017f696861727665737400000000000000000000000000000000000000000000000081525080519060200120815260200190815260200160002090805190602001906200119592919062001819565b5060086040518060400160405280600881526020017f69686172766573740000000000000000000000000000000000000000000000008152508051906020012090806001815401808255809150509060018203906000526020600020016000909192909190915055506040518060400160405280600a81526020017f6d69737465727377617000000000000000000000000000000000000000000000815250600a60006040518060400160405280600a81526020017f6d6973746572737761700000000000000000000000000000000000000000000081525080519060200120815260200190815260200160002090805190602001906200129892919062001819565b5060086040518060400160405280600a81526020017f6d697374657273776170000000000000000000000000000000000000000000008152508051906020012090806001815401808255809150509060018203906000526020600020016000909192909190915055506040518060400160405280600781526020017f6e65746d6f726600000000000000000000000000000000000000000000000000815250600a60006040518060400160405280600781526020017f6e65746d6f72660000000000000000000000000000000000000000000000000081525080519060200120815260200190815260200160002090805190602001906200139b92919062001819565b5060086040518060400160405280600781526020017f6e65746d6f7266000000000000000000000000000000000000000000000000008152508051906020012090806001815401808255809150509060018203906000526020600020016000909192909190915055506040518060400160405280600c81526020017f706f70756c6172706f7765720000000000000000000000000000000000000000815250600a60006040518060400160405280600c81526020017f706f70756c6172706f776572000000000000000000000000000000000000000081525080519060200120815260200190815260200160002090805190602001906200149e92919062001819565b5060086040518060400160405280600c81526020017f706f70756c6172706f77657200000000000000000000000000000000000000008152508051906020012090806001815401808255809150509060018203906000526020600020016000909192909190915055506040518060400160405280600e81526020017f737469636b796e6574776f726b73000000000000000000000000000000000000815250600a60006040518060400160405280600e81526020017f737469636b796e6574776f726b730000000000000000000000000000000000008152508051906020012081526020019081526020016000209080519060200190620015a192919062001819565b5060086040518060400160405280600e81526020017f737469636b796e6574776f726b730000000000000000000000000000000000008152508051906020012090806001815401808255809150509060018203906000526020600020016000909192909190915055506040518060400160405280600a81526020017f7468697264766f69636500000000000000000000000000000000000000000000815250600a60006040518060400160405280600a81526020017f7468697264766f696365000000000000000000000000000000000000000000008152508051906020012081526020019081526020016000209080519060200190620016a492919062001819565b5060086040518060400160405280600a81526020017f7468697264766f696365000000000000000000000000000000000000000000008152508051906020012090806001815401808255809150509060018203906000526020600020016000909192909190915055506040518060400160405280600c81526020017f77696e677370616e62616e6b0000000000000000000000000000000000000000815250600a60006040518060400160405280600c81526020017f77696e677370616e62616e6b00000000000000000000000000000000000000008152508051906020012081526020019081526020016000209080519060200190620017a792919062001819565b5060086040518060400160405280600c81526020017f77696e677370616e62616e6b0000000000000000000000000000000000000000815250805190602001209080600181540180825580915050906001820390600052602060002001600090919290919091505550505050620018c8565b828054600181600116156101000203166002900490600052602060002090601f016020900481019282601f106200185c57805160ff19168380011785556200188d565b828001600101855582156200188d579182015b828111156200188c5782518255916020019190600101906200186f565b5b5090506200189c9190620018a0565b5090565b620018c591905b80821115620018c1576000816000905550600101620018a7565b5090565b90565b61266680620018d86000396000f3fe6080604052600436106101405760003560e01c8063660b7ad5116100b6578063a33363f91161006f578063a33363f91461090c578063c722f177146109d4578063cb01a9bf14610a88578063d29201f614610b0b578063e6fe39ed14610c13578063f2fde38b14610c6457610140565b8063660b7ad514610652578063733ccaba146106f657806375f12b21146107de578063880cdc311461080d5780638f449b851461085e57806396df3540146108e157610140565b80631cb82d79116101085780631cb82d79146103305780632b20e397146103875780632eef3d65146103de5780633f15457f146104e75780634732a7dc1461053e5780634b7d09271461058f57610140565b806301ffc9a71461014557806302571be3146101b757806307da68f514610232578063085bca76146102495780631705a3bd146102d9575b600080fd5b34801561015157600080fd5b5061019d6004803603602081101561016857600080fd5b8101908080357bffffffffffffffffffffffffffffffffffffffffffffffffffffffff19169060200190929190505050610cb5565b604051808215151515815260200191505060405180910390f35b3480156101c357600080fd5b506101f0600480360360208110156101da57600080fd5b8101908080359060200190929190505050610d17565b604051808273ffffffffffffffffffffffffffffffffffffffff1673ffffffffffffffffffffffffffffffffffffffff16815260200191505060405180910390f35b34801561023e57600080fd5b50610247610d21565b005b34801561025557600080fd5b506102d76004803603604081101561026c57600080fd5b810190808035906020019064010000000081111561028957600080fd5b82018360208201111561029b57600080fd5b803590602001918460018302840111640100000000831117156102bd57600080fd5b909192939192939080359060200190929190505050610db0565b005b3480156102e557600080fd5b506102ee610efe565b604051808273ffffffffffffffffffffffffffffffffffffffff1673ffffffffffffffffffffffffffffffffffffffff16815260200191505060405180910390f35b34801561033c57600080fd5b50610345610f24565b604051808273ffffffffffffffffffffffffffffffffffffffff1673ffffffffffffffffffffffffffffffffffffffff16815260200191505060405180910390f35b34801561039357600080fd5b5061039c610f4a565b604051808273ffffffffffffffffffffffffffffffffffffffff1673ffffffffffffffffffffffffffffffffffffffff16815260200191505060405180910390f35b3480156103ea57600080fd5b5061046c6004803603604081101561040157600080fd5b81019080803590602001909291908035906020019064010000000081111561042857600080fd5b82018360208201111561043a57600080fd5b8035906020019184600183028401116401000000008311171561045c57600080fd5b9091929391929390505050610f70565b6040518080602001828103825283818151815260200191508051906020019080838360005b838110156104ac578082015181840152602081019050610491565b50505050905090810190601f1680156104d95780820380516001836020036101000a031916815260200191505b509250505060405180910390f35b3480156104f357600080fd5b506104fc6111cb565b604051808273ffffffffffffffffffffffffffffffffffffffff1673ffffffffffffffffffffffffffffffffffffffff16815260200191505060405180910390f35b34801561054a57600080fd5b5061058d6004803603602081101561056157600080fd5b81019080803573ffffffffffffffffffffffffffffffffffffffff1690602001909291905050506111f1565b005b610650600480360360808110156105a557600080fd5b8101908080359060200190929190803590602001906401000000008111156105cc57600080fd5b8201836020820111156105de57600080fd5b8035906020019184600183028401116401000000008311171561060057600080fd5b9091929391929390803573ffffffffffffffffffffffffffffffffffffffff169060200190929190803573ffffffffffffffffffffffffffffffffffffffff1690602001909291905050506112a7565b005b34801561065e57600080fd5b506106e06004803603604081101561067557600080fd5b81019080803590602001909291908035906020019064010000000081111561069c57600080fd5b8201836020820111156106ae57600080fd5b803590602001918460018302840111640100000000831117156106d057600080fd5b9091929391929390505050611315565b6040518082815260200191505060405180910390f35b34801561070257600080fd5b506107dc6004803603604081101561071957600080fd5b810190808035906020019064010000000081111561073657600080fd5b82018360208201111561074857600080fd5b8035906020019184600183028401116401000000008311171561076a57600080fd5b91908080601f016020809104026020016040519081016040528093929190818152602001838380828437600081840152601f19601f820116905080830192505050505050509192919290803573ffffffffffffffffffffffffffffffffffffffff169060200190929190505050611341565b005b3480156107ea57600080fd5b506107f36114b3565b604051808215151515815260200191505060405180910390f35b34801561081957600080fd5b5061085c6004803603602081101561083057600080fd5b81019080803573ffffffffffffffffffffffffffffffffffffffff1690602001909291905050506114c5565b005b6108df6004803603604081101561087457600080fd5b810190808035906020019064010000000081111561089157600080fd5b8201836020820111156108a357600080fd5b803590602001918460018302840111640100000000831117156108c557600080fd5b909192939192939080359060200190929190505050611563565b005b3480156108ed57600080fd5b506108f6611beb565b6040518082815260200191505060405180910390f35b34801561091857600080fd5b506109d26004803603602081101561092f57600080fd5b810190808035906020019064010000000081111561094c57600080fd5b82018360208201111561095e57600080fd5b8035906020019184600183028401116401000000008311171561098057600080fd5b91908080601f016020809104026020016040519081016040528093929190818152602001838380828437600081840152601f19601f820116905080830192505050505050509192919290505050611c12565b005b3480156109e057600080fd5b50610a0d600480360360208110156109f757600080fd5b8101908080359060200190929190505050611c21565b6040518080602001828103825283818151815260200191508051906020019080838360005b83811015610a4d578082015181840152602081019050610a32565b50505050905090810190601f168015610a7a5780820380516001836020036101000a031916815260200191505b509250505060405180910390f35b610b0960048036036040811015610a9e57600080fd5b810190808035906020019092919080359060200190640100000000811115610ac557600080fd5b820183602082011115610ad757600080fd5b80359060200191846001830284011164010000000083111715610af957600080fd5b9091929391929390505050611cd1565b005b348015610b1757600080fd5b50610c1160048036036060811015610b2e57600080fd5b8101908080359060200190640100000000811115610b4b57600080fd5b820183602082011115610b5d57600080fd5b80359060200191846001830284011164010000000083111715610b7f57600080fd5b91908080601f016020809104026020016040519081016040528093929190818152602001838380828437600081840152601f19601f820116905080830192505050505050509192919290803573ffffffffffffffffffffffffffffffffffffffff169060200190929190803573ffffffffffffffffffffffffffffffffffffffff169060200190929190505050611d3f565b005b348015610c1f57600080fd5b50610c6260048036036020811015610c3657600080fd5b81019080803573ffffffffffffffffffffffffffffffffffffffff169060200190929190505050611df5565b005b348015610c7057600080fd5b50610cb360048036036020811015610c8757600080fd5b81019080803573ffffffffffffffffffffffffffffffffffffffff169060200190929190505050611eed565b005b60006301ffc9a760e01b827bffffffffffffffffffffffffffffffffffffffffffffffffffffffff19161480610d10575063c1b15f5a60e01b827bffffffffffffffffffffffffffffffffffffffffffffffffffffffff1916145b9050919050565b6000309050919050565b6000809054906101000a900460ff1615610d3a57600080fd5b600060019054906101000a900473ffffffffffffffffffffffffffffffffffffffff1673ffffffffffffffffffffffffffffffffffffffff163373ffffffffffffffffffffffffffffffffffffffff1614610d9457600080fd5b60016000806101000a81548160ff021916908315150217905550565b600660009054906101000a900473ffffffffffffffffffffffffffffffffffffffff1673ffffffffffffffffffffffffffffffffffffffff163373ffffffffffffffffffffffffffffffffffffffff1614610e0a57600080fd5b600060648281610e1657fe5b0490506000811415610e305760648281610e2c57fe5b0690505b600060086001830381548110610e4257fe5b9060005260206000200154905060007f93cdeb708b7545dc668eb9280176169d1c33cfd8ed6f04690a0bcc88a93fc4ae60001b8260405160200180838152602001828152602001925050506040516020818303038152906040528051906020012090506000868660405180838380828437808301925050509250505060405180910390209050610ef58282600460009054906101000a900473ffffffffffffffffffffffffffffffffffffffff16611f8b565b50505050505050565b600160009054906101000a900473ffffffffffffffffffffffffffffffffffffffff1681565b600060019054906101000a900473ffffffffffffffffffffffffffffffffffffffff1681565b600260009054906101000a900473ffffffffffffffffffffffffffffffffffffffff1681565b606060007f93cdeb708b7545dc668eb9280176169d1c33cfd8ed6f04690a0bcc88a93fc4ae60001b856040516020018083815260200182815260200192505050604051602081830303815290604052805190602001209050600081858560405180838380828437808301925050509250505060405180910390206040516020018083815260200182815260200192505050604051602081830303815290604052805190602001209050600073ffffffffffffffffffffffffffffffffffffffff16600360009054906101000a900473ffffffffffffffffffffffffffffffffffffffff1673ffffffffffffffffffffffffffffffffffffffff166302571be3836040518263ffffffff1660e01b81526004018082815260200191505060206040518083038186803b1580156110a457600080fd5b505afa1580156110b8573d6000803e3d6000fd5b505050506040513d60208110156110ce57600080fd5b810190808051906020019092919050505073ffffffffffffffffffffffffffffffffffffffff16146111135760405180602001604052806000815250925050506111c4565b600a60008781526020019081526020016000208054600181600116156101000203166002900480601f0160208091040260200160405190810160405280929190818152602001828054600181600116156101000203166002900480156111ba5780601f1061118f576101008083540402835291602001916111ba565b820191906000526020600020905b81548152906001019060200180831161119d57829003601f168201915b5050505050925050505b9392505050565b600360009054906101000a900473ffffffffffffffffffffffffffffffffffffffff1681565b600060019054906101000a900473ffffffffffffffffffffffffffffffffffffffff1673ffffffffffffffffffffffffffffffffffffffff163373ffffffffffffffffffffffffffffffffffffffff161461124b57600080fd5b6000809054906101000a900460ff1661126357600080fd5b80600160006101000a81548173ffffffffffffffffffffffffffffffffffffffff021916908373ffffffffffffffffffffffffffffffffffffffff16021790555050565b6040517f08c379a00000000000000000000000000000000000000000000000000000000081526004018080602001828103825260048152602001807f6e6f70650000000000000000000000000000000000000000000000000000000081525060200191505060405180910390fd5b60007fffffffffffffffffffffffffffffffffffffffffffffffffffffffffffffffff90509392505050565b81805190602001203373ffffffffffffffffffffffffffffffffffffffff1661136982610d17565b73ffffffffffffffffffffffffffffffffffffffff161461138957600080fd5b60008380519060200120905060007f93cdeb708b7545dc668eb9280176169d1c33cfd8ed6f04690a0bcc88a93fc4ae60001b826040516020018083815260200182815260200192505050604051602081830303815290604052805190602001209050600360009054906101000a900473ffffffffffffffffffffffffffffffffffffffff1673ffffffffffffffffffffffffffffffffffffffff16631896f70a82866040518363ffffffff1660e01b8152600401808381526020018273ffffffffffffffffffffffffffffffffffffffff1673ffffffffffffffffffffffffffffffffffffffff16815260200192505050600060405180830381600087803b15801561149457600080fd5b505af11580156114a8573d6000803e3d6000fd5b505050505050505050565b6000809054906101000a900460ff1681565b600660009054906101000a900473ffffffffffffffffffffffffffffffffffffffff1673ffffffffffffffffffffffffffffffffffffffff163373ffffffffffffffffffffffffffffffffffffffff161461151f57600080fd5b80600660006101000a81548173ffffffffffffffffffffffffffffffffffffffff021916908373ffffffffffffffffffffffffffffffffffffffff16021790555050565b6000809054906101000a900460ff161561157c57600080fd5b6000600560009054906101000a900473ffffffffffffffffffffffffffffffffffffffff1673ffffffffffffffffffffffffffffffffffffffff16636352211e836040518263ffffffff1660e01b81526004018082815260200191505060206040518083038186803b1580156115f157600080fd5b505afa158015611605573d6000803e3d6000fd5b505050506040513d602081101561161b57600080fd5b810190808051906020019092919050505090503373ffffffffffffffffffffffffffffffffffffffff168173ffffffffffffffffffffffffffffffffffffffff16146116b2576040517f08c379a00000000000000000000000000000000000000000000000000000000081526004018080602001828103825260318152602001806126016031913960400191505060405180910390fd5b6000606483816116be57fe5b04905060008114156116d857606483816116d457fe5b0690505b6000600860018303815481106116ea57fe5b9060005260206000200154905060007f93cdeb708b7545dc668eb9280176169d1c33cfd8ed6f04690a0bcc88a93fc4ae60001b8260405160200180838152602001828152602001925050506040516020818303038152906040528051906020012090506000878760405180838380828437808301925050509250505060405180910390209050600082826040516020018083815260200182815260200192505050604051602081830303815290604052805190602001209050600073ffffffffffffffffffffffffffffffffffffffff16600360009054906101000a900473ffffffffffffffffffffffffffffffffffffffff1673ffffffffffffffffffffffffffffffffffffffff166302571be3836040518263ffffffff1660e01b81526004018082815260200191505060206040518083038186803b15801561182e57600080fd5b505afa158015611842573d6000803e3d6000fd5b505050506040513d602081101561185857600080fd5b810190808051906020019092919050505073ffffffffffffffffffffffffffffffffffffffff16146118f2576040517f08c379a00000000000000000000000000000000000000000000000000000000081526004018080602001828103825260158152602001807f7375626e6f646520616c7265616479206f776e6564000000000000000000000081525060200191505060405180910390fd5b6060600760008981526020019081526020016000208054600181600116156101000203166002900480601f01602080910402602001604051908101604052809291908181526020018280546001816001161561010002031660029004801561199b5780601f106119705761010080835404028352916020019161199b565b820191906000526020600020905b81548152906001019060200180831161197e57829003601f168201915b5050505050905060008151146119e6576000818051906020012090506119e48582600460009054906101000a900473ffffffffffffffffffffffffffffffffffffffff16611f8b565b505b611a14848489600460009054906101000a900473ffffffffffffffffffffffffffffffffffffffff16612213565b8989600760008b81526020019081526020016000209190611a3692919061255b565b507f2ad31789a7aef8dd20e79cc0f05deb4655c33332e8e6bcb4cd1622e1a2b679f3600a60008781526020019081526020016000208b8b8b8b866040518080602001806020018681526020018573ffffffffffffffffffffffffffffffffffffffff1673ffffffffffffffffffffffffffffffffffffffff1681526020018060200184810384528a818154600181600116156101000203166002900481526020019150805460018160011615610100020316600290048015611b395780601f10611b0e57610100808354040283529160200191611b39565b820191906000526020600020905b815481529060010190602001808311611b1c57829003601f168201915b50508481038352898982818152602001925080828437600081840152601f19601f820116905080830192505050848103825285818151815260200191508051906020019080838360005b83811015611b9e578082015181840152602081019050611b83565b50505050905090810190601f168015611bcb5780820380516001836020036101000a031916815260200191505b50995050505050505050505060405180910390a150505050505050505050565b7f93cdeb708b7545dc668eb9280176169d1c33cfd8ed6f04690a0bcc88a93fc4ae60001b81565b611c1e81336000611d3f565b50565b600a6020528060005260406000206000915090508054600181600116156101000203166002900480601f016020809104026020016040519081016040528092919081815260200182805460018160011615610100020316600290048015611cc95780601f10611c9e57610100808354040283529160200191611cc9565b820191906000526020600020905b815481529060010190602001808311611cac57829003601f168201915b505050505081565b6040517f08c379a00000000000000000000000000000000000000000000000000000000081526004018080602001828103825260048152602001807f6e6f70650000000000000000000000000000000000000000000000000000000081525060200191505060405180910390fd5b82805190602001203373ffffffffffffffffffffffffffffffffffffffff16611d6782610d17565b73ffffffffffffffffffffffffffffffffffffffff1614611d8757600080fd5b6040517f08c379a00000000000000000000000000000000000000000000000000000000081526004018080602001828103825260048152602001807f6e6f70650000000000000000000000000000000000000000000000000000000081525060200191505060405180910390fd5b600660009054906101000a900473ffffffffffffffffffffffffffffffffffffffff1673ffffffffffffffffffffffffffffffffffffffff163373ffffffffffffffffffffffffffffffffffffffff1614611e4f57600080fd5b600660009054906101000a900473ffffffffffffffffffffffffffffffffffffffff1673ffffffffffffffffffffffffffffffffffffffff163373ffffffffffffffffffffffffffffffffffffffff1614611ea957600080fd5b80600460006101000a81548173ffffffffffffffffffffffffffffffffffffffff021916908373ffffffffffffffffffffffffffffffffffffffff16021790555050565b600060019054906101000a900473ffffffffffffffffffffffffffffffffffffffff1673ffffffffffffffffffffffffffffffffffffffff163373ffffffffffffffffffffffffffffffffffffffff1614611f4757600080fd5b80600060016101000a81548173ffffffffffffffffffffffffffffffffffffffff021916908373ffffffffffffffffffffffffffffffffffffffff16021790555050565b600360009054906101000a900473ffffffffffffffffffffffffffffffffffffffff1673ffffffffffffffffffffffffffffffffffffffff166306ab59238484306040518463ffffffff1660e01b8152600401808481526020018381526020018273ffffffffffffffffffffffffffffffffffffffff1673ffffffffffffffffffffffffffffffffffffffff1681526020019350505050602060405180830381600087803b15801561203c57600080fd5b505af1158015612050573d6000803e3d6000fd5b505050506040513d602081101561206657600080fd5b8101908080519060200190929190505050506000838360405160200180838152602001828152602001925050506040516020818303038152906040528051906020012090508173ffffffffffffffffffffffffffffffffffffffff1663d5fa2b008260006040518363ffffffff1660e01b8152600401808381526020018273ffffffffffffffffffffffffffffffffffffffff1673ffffffffffffffffffffffffffffffffffffffff16815260200192505050600060405180830381600087803b15801561213357600080fd5b505af1158015612147573d6000803e3d6000fd5b50505050600360009054906101000a900473ffffffffffffffffffffffffffffffffffffffff1673ffffffffffffffffffffffffffffffffffffffff16635b0fc9c38260006040518363ffffffff1660e01b8152600401808381526020018273ffffffffffffffffffffffffffffffffffffffff1673ffffffffffffffffffffffffffffffffffffffff16815260200192505050600060405180830381600087803b1580156121f557600080fd5b505af1158015612209573d6000803e3d6000fd5b5050505050505050565b600360009054906101000a900473ffffffffffffffffffffffffffffffffffffffff1673ffffffffffffffffffffffffffffffffffffffff166306ab59238585306040518463ffffffff1660e01b8152600401808481526020018381526020018273ffffffffffffffffffffffffffffffffffffffff1673ffffffffffffffffffffffffffffffffffffffff1681526020019350505050602060405180830381600087803b1580156122c457600080fd5b505af11580156122d8573d6000803e3d6000fd5b505050506040513d60208110156122ee57600080fd5b810190808051906020019092919050505050600084846040516020018083815260200182815260200192505050604051602081830303815290604052805190602001209050600360009054906101000a900473ffffffffffffffffffffffffffffffffffffffff1673ffffffffffffffffffffffffffffffffffffffff16631896f70a82846040518363ffffffff1660e01b8152600401808381526020018273ffffffffffffffffffffffffffffffffffffffff1673ffffffffffffffffffffffffffffffffffffffff16815260200192505050600060405180830381600087803b1580156123dc57600080fd5b505af11580156123f0573d6000803e3d6000fd5b505050508173ffffffffffffffffffffffffffffffffffffffff1663d5fa2b0082856040518363ffffffff1660e01b8152600401808381526020018273ffffffffffffffffffffffffffffffffffffffff1673ffffffffffffffffffffffffffffffffffffffff16815260200192505050600060405180830381600087803b15801561247b57600080fd5b505af115801561248f573d6000803e3d6000fd5b50505050600360009054906101000a900473ffffffffffffffffffffffffffffffffffffffff1673ffffffffffffffffffffffffffffffffffffffff16635b0fc9c382856040518363ffffffff1660e01b8152600401808381526020018273ffffffffffffffffffffffffffffffffffffffff1673ffffffffffffffffffffffffffffffffffffffff16815260200192505050600060405180830381600087803b15801561253c57600080fd5b505af1158015612550573d6000803e3d6000fd5b505050505050505050565b828054600181600116156101000203166002900490600052602060002090601f016020900481019282601f1061259c57803560ff19168380011785556125ca565b828001600101855582156125ca579182015b828111156125c95782358255916020019190600101906125ae565b5b5090506125d791906125db565b5090565b6125fd91905b808211156125f95760008160009055506001016125e1565b5090565b9056fe63616e74207265676973746572206120737562646f6d61696e20666f7220616e204e465420796f7520646f6e74206f776ea265627a7a723158207352974555c31b2593263b94a50a6b732399ac215adc6f2705341e28f470d7b264736f6c63430005100032",
  "source": "pragma solidity ^0.5.0;\n\nimport \"./AbstractSubdomainRegistrar.sol\";\nimport \"@ensdomains/ens/contracts/Deed.sol\";\nimport \"@ensdomains/ens/contracts/Registrar.sol\";\nimport \"./DeadDotComSeance.sol\";\n\n/**\n    Subdomain Registrar is heavily modified from \n    https://github.com/ensdomains/subdomain-registrar\n */\n\ncontract SubdomainRegistrar is AbstractSubdomainRegistrar {\n\n    modifier onlyOwner() {\n        require(msg.sender == oowner);\n        _;\n    }\n\n    event NewSubdomain(string domain, string subdomain, uint256 tokenId, address tokenOwner, string oldSubdomain);\n\n    Resolver resolver;\n    DeadDotComSeance deadDotComSeance;\n    address oowner;\n    mapping (uint256 => string) idToSubdomain;\n    bytes32[] idToDomain;\n\n    mapping (bytes32 => uint256) labelToId;\n    mapping (bytes32 => string) public domains;\n\n    constructor(ENS ens, DeadDotComSeance _deadDotComSeance, Resolver _resolver) AbstractSubdomainRegistrar(ens) public {\n        resolver = _resolver;\n        deadDotComSeance = _deadDotComSeance;\n        oowner = msg.sender;\n\n        domains[keccak256(bytes(\"petsdotcom\"))]= \"petsdotcom\";\n        idToDomain.push(keccak256(bytes(\"petsdotcom\")));\n\n        domains[keccak256(bytes(\"alladvantage\"))]= \"alladvantage\";\n        idToDomain.push(keccak256(bytes(\"alladvantage\")));\n\n        domains[keccak256(bytes(\"bidland\"))]= \"bidland\";\n        idToDomain.push(keccak256(bytes(\"bidland\")));\n\n        domains[keccak256(bytes(\"bizbuyer\"))]= \"bizbuyer\";\n        idToDomain.push(keccak256(bytes(\"bizbuyer\")));\n\n        domains[keccak256(bytes(\"capacityweb\"))]= \"capacityweb\";\n        idToDomain.push(keccak256(bytes(\"capacityweb\")));\n\n        domains[keccak256(bytes(\"cashwars\"))]= \"cashwars\";\n        idToDomain.push(keccak256(bytes(\"cashwars\")));\n\n        domains[keccak256(bytes(\"ecircles\"))]= \"ecircles\";\n        idToDomain.push(keccak256(bytes(\"ecircles\")));\n\n        domains[keccak256(bytes(\"efanshop\"))]= \"efanshop\";\n        idToDomain.push(keccak256(bytes(\"efanshop\")));\n\n        domains[keccak256(bytes(\"ehobbies\"))]= \"ehobbies\";\n        idToDomain.push(keccak256(bytes(\"ehobbies\")));\n\n        domains[keccak256(bytes(\"elaw\"))]= \"elaw\";\n        idToDomain.push(keccak256(bytes(\"elaw\")));\n\n        domains[keccak256(bytes(\"exchangepath\"))]= \"exchangepath\";\n        idToDomain.push(keccak256(bytes(\"exchangepath\")));\n\n        domains[keccak256(bytes(\"financialprinter\"))]= \"financialprinter\";\n        idToDomain.push(keccak256(bytes(\"financialprinter\")));\n\n        domains[keccak256(bytes(\"funbug\"))]= \"funbug\";\n        idToDomain.push(keccak256(bytes(\"funbug\")));\n\n        domains[keccak256(bytes(\"heavenlydoor\"))]= \"heavenlydoor\";\n        idToDomain.push(keccak256(bytes(\"heavenlydoor\")));\n\n        domains[keccak256(bytes(\"iharvest\"))]= \"iharvest\";\n        idToDomain.push(keccak256(bytes(\"iharvest\")));\n\n        domains[keccak256(bytes(\"misterswap\"))]= \"misterswap\";\n        idToDomain.push(keccak256(bytes(\"misterswap\")));\n\n        domains[keccak256(bytes(\"netmorf\"))]= \"netmorf\";\n        idToDomain.push(keccak256(bytes(\"netmorf\")));\n\n        domains[keccak256(bytes(\"popularpower\"))]= \"popularpower\";\n        idToDomain.push(keccak256(bytes(\"popularpower\")));\n\n        domains[keccak256(bytes(\"stickynetworks\"))]= \"stickynetworks\";\n        idToDomain.push(keccak256(bytes(\"stickynetworks\")));\n\n        domains[keccak256(bytes(\"thirdvoice\"))]= \"thirdvoice\";\n        idToDomain.push(keccak256(bytes(\"thirdvoice\")));\n\n        domains[keccak256(bytes(\"wingspanbank\"))]= \"wingspanbank\";\n        idToDomain.push(keccak256(bytes(\"wingspanbank\")));\n    }\n\n    // admin\n\n    function updateOwner(address newOwner) public onlyOwner {\n        oowner = newOwner;\n    }\n    function updateResolver(Resolver _resolver) public onlyOwner {\n        require(msg.sender == oowner);\n        resolver = _resolver;\n    }\n\n    // meat and potatoes\n\n    function registerSubdomain(string calldata subdomain, uint256 tokenId) external not_stopped payable {\n        // make sure msg.sender is the owner of the NFT tokenId\n        address subdomainOwner = deadDotComSeance.ownerOf(tokenId);\n        require(subdomainOwner == msg.sender, \"cant register a subdomain for an NFT you dont own\");\n\n        // make sure that the tokenId is correlated to the domain\n        uint256 workId = tokenId / 100;\n\n        // guille works are all part of workId 0\n        if (workId == 0) {\n            workId = tokenId % 100;\n        }\n\n        bytes32 label = idToDomain[workId - 1];\n\n        bytes32 domainNode = keccak256(abi.encodePacked(TLD_NODE, label));\n        bytes32 subdomainLabel = keccak256(bytes(subdomain));\n        bytes32 subnode = keccak256(abi.encodePacked(domainNode, subdomainLabel));\n\n        // Subdomain must not be registered already.\n        require(ens.owner(subnode) == address(0), \"subnode already owned\");\n\n        // if subdomain was previously registered, delete it\n        string memory oldSubdomain = idToSubdomain[tokenId];\n        if (bytes(oldSubdomain).length != 0) {\n            bytes32 oldSubdomainLabel = keccak256(bytes(oldSubdomain));\n            undoRegistration(domainNode, oldSubdomainLabel, resolver);\n        }\n\n        doRegistration(domainNode, subdomainLabel, subdomainOwner, resolver);\n        idToSubdomain[tokenId] = subdomain;\n\n        emit NewSubdomain(domains[label], subdomain, tokenId, subdomainOwner, oldSubdomain);\n    }\n\n    // admin\n\n    function unregister(string calldata subdomain, uint256 tokenId) external onlyOwner {\n        uint256 workId = tokenId / 100;\n\n        if (workId == 0) {\n            workId = tokenId % 100;\n        }\n        bytes32 label = idToDomain[workId - 1];\n        bytes32 domainNode = keccak256(abi.encodePacked(TLD_NODE, label));\n        bytes32 _subdomain = keccak256(bytes(subdomain));\n        undoRegistration(domainNode, _subdomain, resolver);\n    }\n\n    // Don't want to modify too much of the inherited ENS stuff.\n    // Everything below is just to satisfy interface and might be used for ENS frontent.\n\n    function register(bytes32 label, string calldata subdomain, address owner, address resolver) external payable {\n        revert(\"nope\");\n    }\n    function payRent(bytes32 label, string calldata subdomain) external payable {\n        revert(\"nope\");\n    }\n    function configureDomainFor(string memory name, address payable _owner, address _transfer) public owner_only(keccak256(bytes(name))) {\n        revert(\"nope\");\n    }\n    function deed(bytes32 label) internal view returns (Deed) {\n        (, address deedAddress,,,) = Registrar(registrar).entries(label);\n        return Deed(deedAddress);\n    }\n    function owner(bytes32 label) public view returns (address) {\n        return address(this);\n    }\n    function query(bytes32 label, string calldata subdomain) external view returns (string memory domain) {\n        bytes32 node = keccak256(abi.encodePacked(TLD_NODE, label));\n        bytes32 subnode = keccak256(abi.encodePacked(node, keccak256(bytes(subdomain))));\n        if (ens.owner(subnode) != address(0x0)) {\n            return (\"\");\n        }\n        return domains[label];\n    }\n}\n",
  "sourcePath": "/Users/billy/GitHub/folia-app/subdomain-registrar/contracts/SubdomainRegistrar.sol",
  "compiler": {
    "name": "solc",
    "version": "0.5.16+commit.9c3226ce.Emscripten.clang"
  },
  "schemaVersion": "3.3.3",
  "updatedAt": "2021-12-07T08:43:47.348Z",
  "networkType": "ethereum",
  "devdoc": {
    "methods": {
      "configureDomain(string)": {
        "details": "Configures a domain for sale.",
        "params": {
          "name": "The name to configure."
        }
      },
      "setMigrationAddress(address)": {
        "details": "Sets the address where domains are migrated to.",
        "params": {
          "_migration": "Address of the new registrar."
        }
      },
      "setResolver(string,address)": {
        "details": "Sets the resolver record for a name in ENS.",
        "params": {
          "name": "The name to set the resolver for.",
          "resolver": "The address of the resolver"
        }
      },
      "stop()": {
        "details": "Stops the registrar, disabling configuring of new domains."
      }
    }
  },
  "userdoc": {
    "methods": {},
    "notice": "Subdomain Registrar is heavily modified from  https://github.com/ensdomains/subdomain-registrar"
  }
}